{
  "_format": "hh-sol-artifact-1",
  "contractName": "AMMAgentNFT",
  "sourceName": "contracts/AMMAgentNFT.sol",
  "abi": [
    {
      "inputs": [],
      "stateMutability": "nonpayable",
      "type": "constructor"
    },
    {
      "anonymous": false,
      "inputs": [
        {
          "indexed": true,
          "internalType": "address",
          "name": "owner",
          "type": "address"
        },
        {
          "indexed": true,
          "internalType": "address",
          "name": "approved",
          "type": "address"
        },
        {
          "indexed": true,
          "internalType": "uint256",
          "name": "tokenId",
          "type": "uint256"
        }
      ],
      "name": "Approval",
      "type": "event"
    },
    {
      "anonymous": false,
      "inputs": [
        {
          "indexed": true,
          "internalType": "address",
          "name": "owner",
          "type": "address"
        },
        {
          "indexed": true,
          "internalType": "address",
          "name": "operator",
          "type": "address"
        },
        {
          "indexed": false,
          "internalType": "bool",
          "name": "approved",
          "type": "bool"
        }
      ],
      "name": "ApprovalForAll",
      "type": "event"
    },
    {
      "anonymous": false,
      "inputs": [
        {
          "indexed": true,
          "internalType": "address",
          "name": "previousOwner",
          "type": "address"
        },
        {
          "indexed": true,
          "internalType": "address",
          "name": "newOwner",
          "type": "address"
        }
      ],
      "name": "OwnershipTransferred",
      "type": "event"
    },
    {
      "anonymous": false,
      "inputs": [
        {
          "indexed": true,
          "internalType": "address",
          "name": "from",
          "type": "address"
        },
        {
          "indexed": true,
          "internalType": "address",
          "name": "to",
          "type": "address"
        },
        {
          "indexed": true,
          "internalType": "uint256",
          "name": "tokenId",
          "type": "uint256"
        }
      ],
      "name": "Transfer",
      "type": "event"
    },
    {
      "inputs": [
        {
          "internalType": "address",
          "name": "to",
          "type": "address"
        },
        {
          "internalType": "uint256",
          "name": "tokenId",
          "type": "uint256"
        }
      ],
      "name": "approve",
      "outputs": [],
      "stateMutability": "nonpayable",
      "type": "function"
    },
    {
      "inputs": [
        {
          "internalType": "address",
          "name": "owner",
          "type": "address"
        }
      ],
      "name": "balanceOf",
      "outputs": [
        {
          "internalType": "uint256",
          "name": "",
          "type": "uint256"
        }
      ],
      "stateMutability": "view",
      "type": "function"
    },
    {
      "inputs": [
        {
          "internalType": "uint256",
          "name": "tokenId",
          "type": "uint256"
        }
      ],
      "name": "getApproved",
      "outputs": [
        {
          "internalType": "address",
          "name": "",
          "type": "address"
        }
      ],
      "stateMutability": "view",
      "type": "function"
    },
    {
      "inputs": [
        {
          "internalType": "uint256",
          "name": "tokenId",
          "type": "uint256"
        }
      ],
      "name": "getSharePercentage",
      "outputs": [
        {
          "internalType": "uint256",
          "name": "",
          "type": "uint256"
        }
      ],
      "stateMutability": "view",
      "type": "function"
    },
    {
      "inputs": [],
      "name": "getTotalShares",
      "outputs": [
        {
          "internalType": "uint256",
          "name": "",
          "type": "uint256"
        }
      ],
      "stateMutability": "view",
      "type": "function"
    },
    {
      "inputs": [
        {
          "internalType": "address",
          "name": "owner",
          "type": "address"
        },
        {
          "internalType": "address",
          "name": "operator",
          "type": "address"
        }
      ],
      "name": "isApprovedForAll",
      "outputs": [
        {
          "internalType": "bool",
          "name": "",
          "type": "bool"
        }
      ],
      "stateMutability": "view",
      "type": "function"
    },
    {
      "inputs": [
        {
          "internalType": "address",
          "name": "recipient",
          "type": "address"
        },
        {
          "internalType": "uint256",
          "name": "sharePercentage",
          "type": "uint256"
        }
      ],
      "name": "mint",
      "outputs": [
        {
          "internalType": "uint256",
          "name": "",
          "type": "uint256"
        }
      ],
      "stateMutability": "nonpayable",
      "type": "function"
    },
    {
      "inputs": [],
      "name": "name",
      "outputs": [
        {
          "internalType": "string",
          "name": "",
          "type": "string"
        }
      ],
      "stateMutability": "view",
      "type": "function"
    },
    {
      "inputs": [],
      "name": "owner",
      "outputs": [
        {
          "internalType": "address",
          "name": "",
          "type": "address"
        }
      ],
      "stateMutability": "view",
      "type": "function"
    },
    {
      "inputs": [
        {
          "internalType": "uint256",
          "name": "tokenId",
          "type": "uint256"
        }
      ],
      "name": "ownerOf",
      "outputs": [
        {
          "internalType": "address",
          "name": "",
          "type": "address"
        }
      ],
      "stateMutability": "view",
      "type": "function"
    },
    {
      "inputs": [],
      "name": "renounceOwnership",
      "outputs": [],
      "stateMutability": "nonpayable",
      "type": "function"
    },
    {
      "inputs": [
        {
          "internalType": "address",
          "name": "from",
          "type": "address"
        },
        {
          "internalType": "address",
          "name": "to",
          "type": "address"
        },
        {
          "internalType": "uint256",
          "name": "tokenId",
          "type": "uint256"
        }
      ],
      "name": "safeTransferFrom",
      "outputs": [],
      "stateMutability": "nonpayable",
      "type": "function"
    },
    {
      "inputs": [
        {
          "internalType": "address",
          "name": "from",
          "type": "address"
        },
        {
          "internalType": "address",
          "name": "to",
          "type": "address"
        },
        {
          "internalType": "uint256",
          "name": "tokenId",
          "type": "uint256"
        },
        {
          "internalType": "bytes",
          "name": "data",
          "type": "bytes"
        }
      ],
      "name": "safeTransferFrom",
      "outputs": [],
      "stateMutability": "nonpayable",
      "type": "function"
    },
    {
      "inputs": [
        {
          "internalType": "address",
          "name": "operator",
          "type": "address"
        },
        {
          "internalType": "bool",
          "name": "approved",
          "type": "bool"
        }
      ],
      "name": "setApprovalForAll",
      "outputs": [],
      "stateMutability": "nonpayable",
      "type": "function"
    },
    {
      "inputs": [
        {
          "internalType": "string",
          "name": "baseURI",
          "type": "string"
        }
      ],
      "name": "setBaseURI",
      "outputs": [],
      "stateMutability": "nonpayable",
      "type": "function"
    },
    {
      "inputs": [
        {
          "internalType": "uint256",
          "name": "",
          "type": "uint256"
        }
      ],
      "name": "sharePercentages",
      "outputs": [
        {
          "internalType": "uint256",
          "name": "",
          "type": "uint256"
        }
      ],
      "stateMutability": "view",
      "type": "function"
    },
    {
      "inputs": [
        {
          "internalType": "bytes4",
          "name": "interfaceId",
          "type": "bytes4"
        }
      ],
      "name": "supportsInterface",
      "outputs": [
        {
          "internalType": "bool",
          "name": "",
          "type": "bool"
        }
      ],
      "stateMutability": "view",
      "type": "function"
    },
    {
      "inputs": [],
      "name": "symbol",
      "outputs": [
        {
          "internalType": "string",
          "name": "",
          "type": "string"
        }
      ],
      "stateMutability": "view",
      "type": "function"
    },
    {
      "inputs": [
        {
          "internalType": "uint256",
          "name": "tokenId",
          "type": "uint256"
        }
      ],
      "name": "tokenURI",
      "outputs": [
        {
          "internalType": "string",
          "name": "",
          "type": "string"
        }
      ],
      "stateMutability": "view",
      "type": "function"
    },
    {
      "inputs": [],
      "name": "totalShares",
      "outputs": [
        {
          "internalType": "uint256",
          "name": "",
          "type": "uint256"
        }
      ],
      "stateMutability": "view",
      "type": "function"
    },
    {
      "inputs": [
        {
          "internalType": "address",
          "name": "from",
          "type": "address"
        },
        {
          "internalType": "address",
          "name": "to",
          "type": "address"
        },
        {
          "internalType": "uint256",
          "name": "tokenId",
          "type": "uint256"
        }
      ],
      "name": "transferFrom",
      "outputs": [],
      "stateMutability": "nonpayable",
      "type": "function"
    },
    {
      "inputs": [
        {
          "internalType": "address",
          "name": "newOwner",
          "type": "address"
        }
      ],
      "name": "transferOwnership",
      "outputs": [],
      "stateMutability": "nonpayable",
      "type": "function"
    }
  ],
  "bytecode": "0x60806040523480156200001157600080fd5b506040518060400160405280600d81526020016c105353481059d95b9d08139195609a1b8152506040518060400160405280600681526020016510535353919560d21b8152508160009081620000689190620001b4565b506001620000778282620001b4565b505050620000946200008e620000b960201b60201c565b620000bd565b604080516020810190915260008152600a90620000b29082620001b4565b5062000280565b3390565b600680546001600160a01b038381166001600160a01b0319831681179093556040519116919082907f8be0079c531659141344cd1fd0a4f28419497f9722a3daafe3b4186f6b6457e090600090a35050565b634e487b7160e01b600052604160045260246000fd5b600181811c908216806200013a57607f821691505b6020821081036200015b57634e487b7160e01b600052602260045260246000fd5b50919050565b601f821115620001af57600081815260208120601f850160051c810160208610156200018a5750805b601f850160051c820191505b81811015620001ab5782815560010162000196565b5050505b505050565b81516001600160401b03811115620001d057620001d06200010f565b620001e881620001e1845462000125565b8462000161565b602080601f831160018114620002205760008415620002075750858301515b600019600386901b1c1916600185901b178555620001ab565b600085815260208120601f198616915b82811015620002515788860151825594840194600190910190840162000230565b5085821015620002705787850151600019600388901b60f8161c191681555b5050505050600190811b01905550565b61182180620002906000396000f3fe608060405234801561001057600080fd5b50600436106101425760003560e01c806370a08231116100b8578063a22cb4651161007c578063a22cb465146102a1578063b88d4fde146102b4578063c87b56dd146102c7578063d5002f2e146102da578063e985e9c5146102e2578063f2fde38b1461031e57600080fd5b806370a082311461025a578063715018a61461026d5780638af4b835146102755780638da5cb5b1461028857806395d89b411461029957600080fd5b806328a88fb01161010a57806328a88fb0146101d75780633a98ef391461020557806340c10f191461020e57806342842e0e1461022157806355f804b3146102345780636352211e1461024757600080fd5b806301ffc9a71461014757806306fdde031461016f578063081812fc14610184578063095ea7b3146101af57806323b872dd146101c4575b600080fd5b61015a610155366004611218565b610331565b60405190151581526020015b60405180910390f35b610177610383565b604051610166919061128c565b61019761019236600461129f565b610415565b6040516001600160a01b039091168152602001610166565b6101c26101bd3660046112d4565b61043c565b005b6101c26101d23660046112fe565b610556565b6101f76101e536600461129f565b60086020526000908152604090205481565b604051908152602001610166565b6101f760095481565b6101f761021c3660046112d4565b610587565b6101c261022f3660046112fe565b6106a3565b6101c26102423660046113c6565b6106be565b61019761025536600461129f565b6106d6565b6101f761026836600461140f565b610736565b6101c26107bc565b6101f761028336600461129f565b6107d0565b6006546001600160a01b0316610197565b61017761083e565b6101c26102af36600461142a565b61084d565b6101c26102c2366004611466565b610858565b6101776102d536600461129f565b610890565b6009546101f7565b61015a6102f03660046114e2565b6001600160a01b03918216600090815260056020908152604080832093909416825291909152205460ff1690565b6101c261032c36600461140f565b610926565b60006001600160e01b031982166380ac58cd60e01b148061036257506001600160e01b03198216635b5e139f60e01b145b8061037d57506301ffc9a760e01b6001600160e01b03198316145b92915050565b60606000805461039290611515565b80601f01602080910402602001604051908101604052809291908181526020018280546103be90611515565b801561040b5780601f106103e05761010080835404028352916020019161040b565b820191906000526020600020905b8154815290600101906020018083116103ee57829003601f168201915b5050505050905090565b60006104208261099f565b506000908152600460205260409020546001600160a01b031690565b6000610447826106d6565b9050806001600160a01b0316836001600160a01b0316036104b95760405162461bcd60e51b815260206004820152602160248201527f4552433732313a20617070726f76616c20746f2063757272656e74206f776e656044820152603960f91b60648201526084015b60405180910390fd5b336001600160a01b03821614806104d557506104d581336102f0565b6105475760405162461bcd60e51b815260206004820152603d60248201527f4552433732313a20617070726f76652063616c6c6572206973206e6f7420746f60448201527f6b656e206f776e6572206f7220617070726f76656420666f7220616c6c00000060648201526084016104b0565b61055183836109fe565b505050565b6105603382610a6c565b61057c5760405162461bcd60e51b81526004016104b09061154f565b610551838383610aeb565b6000610591610c4f565b6000821180156105a357506127108211155b6105ef5760405162461bcd60e51b815260206004820152601860248201527f496e76616c69642073686172652070657263656e74616765000000000000000060448201526064016104b0565b61271082600954610600919061159c565b111561064e5760405162461bcd60e51b815260206004820152601f60248201527f546f74616c207368617265732063616e6e6f742065786365656420313030250060448201526064016104b0565b61065c600780546001019055565b600061066760075490565b90506106738482610ca9565b60008181526008602052604081208490556009805485929061069690849061159c565b9091555090949350505050565b61055183838360405180602001604052806000815250610858565b6106c6610c4f565b600a6106d2828261160b565b5050565b6000818152600260205260408120546001600160a01b03168061037d5760405162461bcd60e51b8152602060048201526018602482015277115490cdcc8c4e881a5b9d985b1a59081d1bdad95b88125160421b60448201526064016104b0565b60006001600160a01b0382166107a05760405162461bcd60e51b815260206004820152602960248201527f4552433732313a2061646472657373207a65726f206973206e6f7420612076616044820152683634b21037bbb732b960b91b60648201526084016104b0565b506001600160a01b031660009081526003602052604090205490565b6107c4610c4f565b6107ce6000610e34565b565b6000818152600260205260408120546001600160a01b031661082b5760405162461bcd60e51b8152602060048201526014602482015273151bdad95b88191bd95cc81b9bdd08195e1a5cdd60621b60448201526064016104b0565b5060009081526008602052604090205490565b60606001805461039290611515565b6106d2338383610e86565b6108623383610a6c565b61087e5760405162461bcd60e51b81526004016104b09061154f565b61088a84848484610f54565b50505050565b6000818152600260205260409020546060906001600160a01b03166108ee5760405162461bcd60e51b8152602060048201526014602482015273151bdad95b88191bd95cc81b9bdd08195e1a5cdd60621b60448201526064016104b0565b6108f6610f87565b6108ff83610f96565b6040516020016109109291906116cb565b6040516020818303038152906040529050919050565b61092e610c4f565b6001600160a01b0381166109935760405162461bcd60e51b815260206004820152602660248201527f4f776e61626c653a206e6577206f776e657220697320746865207a65726f206160448201526564647265737360d01b60648201526084016104b0565b61099c81610e34565b50565b6000818152600260205260409020546001600160a01b031661099c5760405162461bcd60e51b8152602060048201526018602482015277115490cdcc8c4e881a5b9d985b1a59081d1bdad95b88125160421b60448201526064016104b0565b600081815260046020526040902080546001600160a01b0319166001600160a01b0384169081179091558190610a33826106d6565b6001600160a01b03167f8c5be1e5ebec7d5bd14f71427d1e84f3dd0314c0f7b2291e5b200ac8c7c3b92560405160405180910390a45050565b600080610a78836106d6565b9050806001600160a01b0316846001600160a01b03161480610abf57506001600160a01b0380821660009081526005602090815260408083209388168352929052205460ff165b80610ae35750836001600160a01b0316610ad884610415565b6001600160a01b0316145b949350505050565b826001600160a01b0316610afe826106d6565b6001600160a01b031614610b245760405162461bcd60e51b81526004016104b0906116fa565b6001600160a01b038216610b865760405162461bcd60e51b8152602060048201526024808201527f4552433732313a207472616e7366657220746f20746865207a65726f206164646044820152637265737360e01b60648201526084016104b0565b826001600160a01b0316610b99826106d6565b6001600160a01b031614610bbf5760405162461bcd60e51b81526004016104b0906116fa565b600081815260046020908152604080832080546001600160a01b03199081169091556001600160a01b0387811680865260038552838620805460001901905590871680865283862080546001019055868652600290945282852080549092168417909155905184937fddf252ad1be2c89b69c2b068fc378daa952ba7f163c4a11628f55a4df523b3ef91a4505050565b6006546001600160a01b031633146107ce5760405162461bcd60e51b815260206004820181905260248201527f4f776e61626c653a2063616c6c6572206973206e6f7420746865206f776e657260448201526064016104b0565b6001600160a01b038216610cff5760405162461bcd60e51b815260206004820181905260248201527f4552433732313a206d696e7420746f20746865207a65726f206164647265737360448201526064016104b0565b6000818152600260205260409020546001600160a01b031615610d645760405162461bcd60e51b815260206004820152601c60248201527f4552433732313a20746f6b656e20616c7265616479206d696e7465640000000060448201526064016104b0565b6000818152600260205260409020546001600160a01b031615610dc95760405162461bcd60e51b815260206004820152601c60248201527f4552433732313a20746f6b656e20616c7265616479206d696e7465640000000060448201526064016104b0565b6001600160a01b038216600081815260036020908152604080832080546001019055848352600290915280822080546001600160a01b0319168417905551839291907fddf252ad1be2c89b69c2b068fc378daa952ba7f163c4a11628f55a4df523b3ef908290a45050565b600680546001600160a01b038381166001600160a01b0319831681179093556040519116919082907f8be0079c531659141344cd1fd0a4f28419497f9722a3daafe3b4186f6b6457e090600090a35050565b816001600160a01b0316836001600160a01b031603610ee75760405162461bcd60e51b815260206004820152601960248201527f4552433732313a20617070726f766520746f2063616c6c65720000000000000060448201526064016104b0565b6001600160a01b03838116600081815260056020908152604080832094871680845294825291829020805460ff191686151590811790915591519182527f17307eab39ab6107e8899845ad3d59bd9653f200f220920489ca2b5937696c31910160405180910390a3505050565b610f5f848484610aeb565b610f6b84848484611029565b61088a5760405162461bcd60e51b81526004016104b09061173f565b6060600a805461039290611515565b60606000610fa38361112a565b600101905060008167ffffffffffffffff811115610fc357610fc361133a565b6040519080825280601f01601f191660200182016040528015610fed576020820181803683370190505b5090508181016020015b600019016f181899199a1a9b1b9c1cb0b131b232b360811b600a86061a8153600a8504945084610ff757509392505050565b60006001600160a01b0384163b1561111f57604051630a85bd0160e11b81526001600160a01b0385169063150b7a029061106d903390899088908890600401611791565b6020604051808303816000875af19250505080156110a8575060408051601f3d908101601f191682019092526110a5918101906117ce565b60015b611105573d8080156110d6576040519150601f19603f3d011682016040523d82523d6000602084013e6110db565b606091505b5080516000036110fd5760405162461bcd60e51b81526004016104b09061173f565b805181602001fd5b6001600160e01b031916630a85bd0160e11b149050610ae3565b506001949350505050565b60008072184f03e93ff9f4daa797ed6e38ed64bf6a1f0160401b83106111695772184f03e93ff9f4daa797ed6e38ed64bf6a1f0160401b830492506040015b6d04ee2d6d415b85acef81000000008310611195576d04ee2d6d415b85acef8100000000830492506020015b662386f26fc1000083106111b357662386f26fc10000830492506010015b6305f5e10083106111cb576305f5e100830492506008015b61271083106111df57612710830492506004015b606483106111f1576064830492506002015b600a831061037d5760010192915050565b6001600160e01b03198116811461099c57600080fd5b60006020828403121561122a57600080fd5b813561123581611202565b9392505050565b60005b8381101561125757818101518382015260200161123f565b50506000910152565b6000815180845261127881602086016020860161123c565b601f01601f19169290920160200192915050565b6020815260006112356020830184611260565b6000602082840312156112b157600080fd5b5035919050565b80356001600160a01b03811681146112cf57600080fd5b919050565b600080604083850312156112e757600080fd5b6112f0836112b8565b946020939093013593505050565b60008060006060848603121561131357600080fd5b61131c846112b8565b925061132a602085016112b8565b9150604084013590509250925092565b634e487b7160e01b600052604160045260246000fd5b600067ffffffffffffffff8084111561136b5761136b61133a565b604051601f8501601f19908116603f011681019082821181831017156113935761139361133a565b816040528093508581528686860111156113ac57600080fd5b858560208301376000602087830101525050509392505050565b6000602082840312156113d857600080fd5b813567ffffffffffffffff8111156113ef57600080fd5b8201601f8101841361140057600080fd5b610ae384823560208401611350565b60006020828403121561142157600080fd5b611235826112b8565b6000806040838503121561143d57600080fd5b611446836112b8565b91506020830135801515811461145b57600080fd5b809150509250929050565b6000806000806080858703121561147c57600080fd5b611485856112b8565b9350611493602086016112b8565b925060408501359150606085013567ffffffffffffffff8111156114b657600080fd5b8501601f810187136114c757600080fd5b6114d687823560208401611350565b91505092959194509250565b600080604083850312156114f557600080fd5b6114fe836112b8565b915061150c602084016112b8565b90509250929050565b600181811c9082168061152957607f821691505b60208210810361154957634e487b7160e01b600052602260045260246000fd5b50919050565b6020808252602d908201527f4552433732313a2063616c6c6572206973206e6f7420746f6b656e206f776e6560408201526c1c881bdc88185c1c1c9bdd9959609a1b606082015260800190565b8082018082111561037d57634e487b7160e01b600052601160045260246000fd5b601f82111561055157600081815260208120601f850160051c810160208610156115e45750805b601f850160051c820191505b81811015611603578281556001016115f0565b505050505050565b815167ffffffffffffffff8111156116255761162561133a565b611639816116338454611515565b846115bd565b602080601f83116001811461166e57600084156116565750858301515b600019600386901b1c1916600185901b178555611603565b600085815260208120601f198616915b8281101561169d5788860151825594840194600190910190840161167e565b50858210156116bb5787850151600019600388901b60f8161c191681555b5050505050600190811b01905550565b600083516116dd81846020880161123c565b8351908301906116f181836020880161123c565b01949350505050565b60208082526025908201527f4552433732313a207472616e736665722066726f6d20696e636f72726563742060408201526437bbb732b960d91b606082015260800190565b60208082526032908201527f4552433732313a207472616e7366657220746f206e6f6e20455243373231526560408201527131b2b4bb32b91034b6b83632b6b2b73a32b960711b606082015260800190565b6001600160a01b03858116825284166020820152604081018390526080606082018190526000906117c490830184611260565b9695505050505050565b6000602082840312156117e057600080fd5b81516112358161120256fea26469706673582212207e3ff759d3ac731d30c69ec81ec2e5d13ebc7fa1e7858f6e9d77dbcad3719a8164736f6c63430008130033",
  "linkReferences": {},
  "deployedLinkReferences": {}
}