{
  "_format": "hh-sol-artifact-1",
  "contractName": "ProfitDistributor",
  "sourceName": "contracts/ProfitDistributor.sol",
  "abi": [
    {
      "inputs": [
        {
          "internalType": "address",
          "name": "_nftContract",
          "type": "address"
        }
      ],
      "stateMutability": "nonpayable",
      "type": "constructor"
    },
    {
      "anonymous": false,
      "inputs": [
        {
          "indexed": true,
          "internalType": "address",
          "name": "previousOwner",
          "type": "address"
        },
        {
          "indexed": true,
          "internalType": "address",
          "name": "newOwner",
          "type": "address"
        }
      ],
      "name": "OwnershipTransferred",
      "type": "event"
    },
    {
      "anonymous": false,
      "inputs": [
        {
          "indexed": false,
          "internalType": "uint256",
          "name": "tokenId",
          "type": "uint256"
        },
        {
          "indexed": false,
          "internalType": "uint256",
          "name": "amount",
          "type": "uint256"
        }
      ],
      "name": "ProfitClaimed",
      "type": "event"
    },
    {
      "anonymous": false,
      "inputs": [
        {
          "indexed": false,
          "internalType": "uint256",
          "name": "amount",
          "type": "uint256"
        }
      ],
      "name": "ProfitDistributed",
      "type": "event"
    },
    {
      "inputs": [
        {
          "internalType": "uint256",
          "name": "tokenId",
          "type": "uint256"
        }
      ],
      "name": "claimProfits",
      "outputs": [],
      "stateMutability": "nonpayable",
      "type": "function"
    },
    {
      "inputs": [],
      "name": "distributeProfits",
      "outputs": [],
      "stateMutability": "payable",
      "type": "function"
    },
    {
      "inputs": [],
      "name": "emergencyWithdraw",
      "outputs": [],
      "stateMutability": "nonpayable",
      "type": "function"
    },
    {
      "inputs": [
        {
          "internalType": "uint256",
          "name": "tokenId",
          "type": "uint256"
        }
      ],
      "name": "getClaimableProfits",
      "outputs": [
        {
          "internalType": "uint256",
          "name": "",
          "type": "uint256"
        }
      ],
      "stateMutability": "view",
      "type": "function"
    },
    {
      "inputs": [],
      "name": "nftContract",
      "outputs": [
        {
          "internalType": "contract AMMAgentNFT",
          "name": "",
          "type": "address"
        }
      ],
      "stateMutability": "view",
      "type": "function"
    },
    {
      "inputs": [],
      "name": "owner",
      "outputs": [
        {
          "internalType": "address",
          "name": "",
          "type": "address"
        }
      ],
      "stateMutability": "view",
      "type": "function"
    },
    {
      "inputs": [],
      "name": "renounceOwnership",
      "outputs": [],
      "stateMutability": "nonpayable",
      "type": "function"
    },
    {
      "inputs": [],
      "name": "totalProfitsDistributed",
      "outputs": [
        {
          "internalType": "uint256",
          "name": "",
          "type": "uint256"
        }
      ],
      "stateMutability": "view",
      "type": "function"
    },
    {
      "inputs": [
        {
          "internalType": "address",
          "name": "newOwner",
          "type": "address"
        }
      ],
      "name": "transferOwnership",
      "outputs": [],
      "stateMutability": "nonpayable",
      "type": "function"
    },
    {
      "inputs": [
        {
          "internalType": "uint256",
          "name": "",
          "type": "uint256"
        }
      ],
      "name": "unclaimedProfits",
      "outputs": [
        {
          "internalType": "uint256",
          "name": "",
          "type": "uint256"
        }
      ],
      "stateMutability": "view",
      "type": "function"
    },
    {
      "stateMutability": "payable",
      "type": "receive"
    }
  ],
  "bytecode": "0x608060405234801561001057600080fd5b50604051610c40380380610c4083398101604081905261002f916100b1565b61003833610061565b60018055600280546001600160a01b0319166001600160a01b03929092169190911790556100e1565b600080546001600160a01b038381166001600160a01b0319831681178455604051919092169283917f8be0079c531659141344cd1fd0a4f28419497f9722a3daafe3b4186f6b6457e09190a35050565b6000602082840312156100c357600080fd5b81516001600160a01b03811681146100da57600080fd5b9392505050565b610b50806100f06000396000f3fe6080604052600436106100955760003560e01c8063d56d229d11610059578063d56d229d14610148578063da839c9714610168578063db2e21bc14610188578063f2fde38b1461019d578063f98d465c146101bd57600080fd5b80631fee5ccd146100a157806327efbf7a146100ab578063715018a6146100eb5780638da5cb5b14610100578063c1f88f231461013257600080fd5b3661009c57005b600080fd5b6100a96101dd565b005b3480156100b757600080fd5b506100d86100c6366004610a17565b60036020526000908152604090205481565b6040519081526020015b60405180910390f35b3480156100f757600080fd5b506100a961035e565b34801561010c57600080fd5b506000546001600160a01b03165b6040516001600160a01b0390911681526020016100e2565b34801561013e57600080fd5b506100d860045481565b34801561015457600080fd5b5060025461011a906001600160a01b031681565b34801561017457600080fd5b506100a9610183366004610a17565b610370565b34801561019457600080fd5b506100a961068c565b3480156101a957600080fd5b506100a96101b8366004610a45565b610772565b3480156101c957600080fd5b506100d86101d8366004610a17565b6107e8565b6101e5610914565b6101ed61096e565b600034116102425760405162461bcd60e51b815260206004820152601860248201527f4e6f2070726f6669747320746f2064697374726962757465000000000000000060448201526064015b60405180910390fd5b60025460408051636a80179760e11b815290516000926001600160a01b03169163d5002f2e9160048083019260209291908290030181865afa15801561028c573d6000803e3d6000fd5b505050506040513d601f19601f820116820180604052508101906102b09190610a69565b9050600081116102f95760405162461bcd60e51b8152602060048201526014602482015273139bc8139195081cda185c995cc81a5cdcdd595960621b6044820152606401610239565b60006103058234610a98565b905034600460008282546103199190610aba565b90915550506040513481527f939df96a3b47dbfb83da233006cef1eb233fc5cba50ea94fecdebea4d99423e69060200160405180910390a1505061035c60018055565b565b610366610914565b61035c60006109c7565b61037861096e565b6002546040516331a9108f60e11b81526004810183905233916001600160a01b031690636352211e90602401602060405180830381865afa1580156103c1573d6000803e3d6000fd5b505050506040513d601f19601f820116820180604052508101906103e59190610ad3565b6001600160a01b03161461042d5760405162461bcd60e51b815260206004820152600f60248201526e2737ba103a37b5b2b71037bbb732b960891b6044820152606401610239565b600254604051638af4b83560e01b8152600481018390526000916001600160a01b031690638af4b83590602401602060405180830381865afa158015610477573d6000803e3d6000fd5b505050506040513d601f19601f8201168201806040525081019061049b9190610a69565b90506000600260009054906101000a90046001600160a01b03166001600160a01b031663d5002f2e6040518163ffffffff1660e01b8152600401602060405180830381865afa1580156104f2573d6000803e3d6000fd5b505050506040513d601f19601f820116820180604052508101906105169190610a69565b6000848152600360205260408120546004549293509091839061053a908690610af0565b6105449190610a98565b61054e9190610b07565b9050600081116105965760405162461bcd60e51b81526020600482015260136024820152724e6f2070726f6669747320746f20636c61696d60681b6044820152606401610239565b600084815260036020526040812080548392906105b4908490610aba565b9091555050604051600090339083908381818185875af1925050503d80600081146105fb576040519150601f19603f3d011682016040523d82523d6000602084013e610600565b606091505b50509050806106435760405162461bcd60e51b815260206004820152600f60248201526e151c985b9cd9995c8819985a5b1959608a1b6044820152606401610239565b60408051868152602081018490527f5ba7b4080cae38b9a46215441f6e3b707b406bcf0ca39725ce1940a308e08aad910160405180910390a15050505061068960018055565b50565b610694610914565b47806106d95760405162461bcd60e51b81526020600482015260146024820152734e6f2066756e647320746f20776974686472617760601b6044820152606401610239565b600080546040516001600160a01b039091169083908381818185875af1925050503d8060008114610726576040519150601f19603f3d011682016040523d82523d6000602084013e61072b565b606091505b505090508061076e5760405162461bcd60e51b815260206004820152600f60248201526e151c985b9cd9995c8819985a5b1959608a1b6044820152606401610239565b5050565b61077a610914565b6001600160a01b0381166107df5760405162461bcd60e51b815260206004820152602660248201527f4f776e61626c653a206e6577206f776e657220697320746865207a65726f206160448201526564647265737360d01b6064820152608401610239565b610689816109c7565b600254604051638af4b83560e01b81526004810183905260009182916001600160a01b0390911690638af4b83590602401602060405180830381865afa158015610836573d6000803e3d6000fd5b505050506040513d601f19601f8201168201806040525081019061085a9190610a69565b90506000600260009054906101000a90046001600160a01b03166001600160a01b031663d5002f2e6040518163ffffffff1660e01b8152600401602060405180830381865afa1580156108b1573d6000803e3d6000fd5b505050506040513d601f19601f820116820180604052508101906108d59190610a69565b6000858152600360205260409020546004549192509082906108f8908590610af0565b6109029190610a98565b61090c9190610b07565b949350505050565b6000546001600160a01b0316331461035c5760405162461bcd60e51b815260206004820181905260248201527f4f776e61626c653a2063616c6c6572206973206e6f7420746865206f776e65726044820152606401610239565b6002600154036109c05760405162461bcd60e51b815260206004820152601f60248201527f5265656e7472616e637947756172643a207265656e7472616e742063616c6c006044820152606401610239565b6002600155565b600080546001600160a01b038381166001600160a01b0319831681178455604051919092169283917f8be0079c531659141344cd1fd0a4f28419497f9722a3daafe3b4186f6b6457e09190a35050565b600060208284031215610a2957600080fd5b5035919050565b6001600160a01b038116811461068957600080fd5b600060208284031215610a5757600080fd5b8135610a6281610a30565b9392505050565b600060208284031215610a7b57600080fd5b5051919050565b634e487b7160e01b600052601160045260246000fd5b600082610ab557634e487b7160e01b600052601260045260246000fd5b500490565b80820180821115610acd57610acd610a82565b92915050565b600060208284031215610ae557600080fd5b8151610a6281610a30565b8082028115828204841417610acd57610acd610a82565b81810381811115610acd57610acd610a8256fea26469706673582212205db72f49347dcc1bcb512bba593186694b671dab10e1d09012c7402886f7c9f064736f6c63430008130033",
  "linkReferences": {},
  "deployedLinkReferences": {}
}